{
  "contractName": "ERC721Metadata",
  "abi": [
    {
      "inputs": [
        {
          "internalType": "string",
          "name": "name",
          "type": "string"
        },
        {
          "internalType": "string",
          "name": "symbol",
          "type": "string"
        }
      ],
      "payable": false,
      "stateMutability": "nonpayable",
      "type": "constructor"
    },
    {
      "anonymous": false,
      "inputs": [
        {
          "indexed": true,
          "internalType": "address",
          "name": "owner",
          "type": "address"
        },
        {
          "indexed": true,
          "internalType": "address",
          "name": "approved",
          "type": "address"
        },
        {
          "indexed": true,
          "internalType": "uint256",
          "name": "tokenId",
          "type": "uint256"
        }
      ],
      "name": "Approval",
      "type": "event"
    },
    {
      "anonymous": false,
      "inputs": [
        {
          "indexed": true,
          "internalType": "address",
          "name": "owner",
          "type": "address"
        },
        {
          "indexed": true,
          "internalType": "address",
          "name": "operator",
          "type": "address"
        },
        {
          "indexed": false,
          "internalType": "bool",
          "name": "approved",
          "type": "bool"
        }
      ],
      "name": "ApprovalForAll",
      "type": "event"
    },
    {
      "anonymous": false,
      "inputs": [
        {
          "indexed": true,
          "internalType": "address",
          "name": "from",
          "type": "address"
        },
        {
          "indexed": true,
          "internalType": "address",
          "name": "to",
          "type": "address"
        },
        {
          "indexed": true,
          "internalType": "uint256",
          "name": "tokenId",
          "type": "uint256"
        }
      ],
      "name": "Transfer",
      "type": "event"
    },
    {
      "constant": true,
      "inputs": [],
      "name": "_msgData",
      "outputs": [
        {
          "internalType": "bytes",
          "name": "msgdata",
          "type": "bytes"
        }
      ],
      "payable": false,
      "stateMutability": "view",
      "type": "function"
    },
    {
      "constant": true,
      "inputs": [],
      "name": "_msgSender",
      "outputs": [
        {
          "internalType": "address",
          "name": "msgSender",
          "type": "address"
        }
      ],
      "payable": false,
      "stateMutability": "view",
      "type": "function"
    },
    {
      "constant": false,
      "inputs": [
        {
          "internalType": "address",
          "name": "to",
          "type": "address"
        },
        {
          "internalType": "uint256",
          "name": "tokenId",
          "type": "uint256"
        }
      ],
      "name": "approve",
      "outputs": [],
      "payable": false,
      "stateMutability": "nonpayable",
      "type": "function"
    },
    {
      "constant": true,
      "inputs": [
        {
          "internalType": "address",
          "name": "owner",
          "type": "address"
        }
      ],
      "name": "balanceOf",
      "outputs": [
        {
          "internalType": "uint256",
          "name": "",
          "type": "uint256"
        }
      ],
      "payable": false,
      "stateMutability": "view",
      "type": "function"
    },
    {
      "constant": true,
      "inputs": [
        {
          "internalType": "uint256",
          "name": "tokenId",
          "type": "uint256"
        }
      ],
      "name": "getApproved",
      "outputs": [
        {
          "internalType": "address",
          "name": "",
          "type": "address"
        }
      ],
      "payable": false,
      "stateMutability": "view",
      "type": "function"
    },
    {
      "constant": true,
      "inputs": [
        {
          "internalType": "address",
          "name": "owner",
          "type": "address"
        },
        {
          "internalType": "address",
          "name": "operator",
          "type": "address"
        }
      ],
      "name": "isApprovedForAll",
      "outputs": [
        {
          "internalType": "bool",
          "name": "",
          "type": "bool"
        }
      ],
      "payable": false,
      "stateMutability": "view",
      "type": "function"
    },
    {
      "constant": true,
      "inputs": [
        {
          "internalType": "uint256",
          "name": "tokenId",
          "type": "uint256"
        }
      ],
      "name": "ownerOf",
      "outputs": [
        {
          "internalType": "address",
          "name": "",
          "type": "address"
        }
      ],
      "payable": false,
      "stateMutability": "view",
      "type": "function"
    },
    {
      "constant": false,
      "inputs": [
        {
          "internalType": "address",
          "name": "from",
          "type": "address"
        },
        {
          "internalType": "address",
          "name": "to",
          "type": "address"
        },
        {
          "internalType": "uint256",
          "name": "tokenId",
          "type": "uint256"
        }
      ],
      "name": "safeTransferFrom",
      "outputs": [],
      "payable": false,
      "stateMutability": "nonpayable",
      "type": "function"
    },
    {
      "constant": false,
      "inputs": [
        {
          "internalType": "address",
          "name": "from",
          "type": "address"
        },
        {
          "internalType": "address",
          "name": "to",
          "type": "address"
        },
        {
          "internalType": "uint256",
          "name": "tokenId",
          "type": "uint256"
        },
        {
          "internalType": "bytes",
          "name": "_data",
          "type": "bytes"
        }
      ],
      "name": "safeTransferFrom",
      "outputs": [],
      "payable": false,
      "stateMutability": "nonpayable",
      "type": "function"
    },
    {
      "constant": false,
      "inputs": [
        {
          "internalType": "address",
          "name": "to",
          "type": "address"
        },
        {
          "internalType": "bool",
          "name": "approved",
          "type": "bool"
        }
      ],
      "name": "setApprovalForAll",
      "outputs": [],
      "payable": false,
      "stateMutability": "nonpayable",
      "type": "function"
    },
    {
      "constant": true,
      "inputs": [
        {
          "internalType": "bytes4",
          "name": "interfaceId",
          "type": "bytes4"
        }
      ],
      "name": "supportsInterface",
      "outputs": [
        {
          "internalType": "bool",
          "name": "",
          "type": "bool"
        }
      ],
      "payable": false,
      "stateMutability": "view",
      "type": "function"
    },
    {
      "constant": false,
      "inputs": [
        {
          "internalType": "address",
          "name": "from",
          "type": "address"
        },
        {
          "internalType": "address",
          "name": "to",
          "type": "address"
        },
        {
          "internalType": "uint256",
          "name": "tokenId",
          "type": "uint256"
        }
      ],
      "name": "transferFrom",
      "outputs": [],
      "payable": false,
      "stateMutability": "nonpayable",
      "type": "function"
    },
    {
      "constant": true,
      "inputs": [],
      "name": "name",
      "outputs": [
        {
          "internalType": "string",
          "name": "",
          "type": "string"
        }
      ],
      "payable": false,
      "stateMutability": "view",
      "type": "function"
    },
    {
      "constant": true,
      "inputs": [],
      "name": "symbol",
      "outputs": [
        {
          "internalType": "string",
          "name": "",
          "type": "string"
        }
      ],
      "payable": false,
      "stateMutability": "view",
      "type": "function"
    },
    {
      "constant": true,
      "inputs": [
        {
          "internalType": "uint256",
          "name": "tokenId",
          "type": "uint256"
        }
      ],
      "name": "tokenURI",
      "outputs": [
        {
          "internalType": "string",
          "name": "",
          "type": "string"
        }
      ],
      "payable": false,
      "stateMutability": "view",
      "type": "function"
    },
    {
      "constant": false,
      "inputs": [
        {
          "internalType": "uint256",
          "name": "tokenId",
          "type": "uint256"
        },
        {
          "internalType": "string",
          "name": "_tokenURI",
          "type": "string"
        }
      ],
      "name": "_setTokenURI",
      "outputs": [],
      "payable": false,
      "stateMutability": "nonpayable",
      "type": "function"
    },
    {
      "constant": true,
      "inputs": [],
      "name": "baseURI",
      "outputs": [
        {
          "internalType": "string",
          "name": "",
          "type": "string"
        }
      ],
      "payable": false,
      "stateMutability": "view",
      "type": "function"
    }
  ],
  "bytecode": "0x60806040523480156200001157600080fd5b50604051620026be380380620026be833981810160405260408110156200003757600080fd5b81019080805160405193929190846401000000008211156200005857600080fd5b838201915060208201858111156200006f57600080fd5b82518660018202830111640100000000821117156200008d57600080fd5b8083526020830192505050908051906020019080838360005b83811015620000c3578082015181840152602081019050620000a6565b50505050905090810190601f168015620000f15780820380516001836020036101000a031916815260200191505b50604052602001805160405193929190846401000000008211156200011557600080fd5b838201915060208201858111156200012c57600080fd5b82518660018202830111640100000000821117156200014a57600080fd5b8083526020830192505050908051906020019080838360005b838110156200018057808201518184015260208101905062000163565b50505050905090810190601f168015620001ae5780820380516001836020036101000a031916815260200191505b50604052505050620001cd6301ffc9a760e01b6200023760201b60201c565b620001e56380ac58cd60e01b6200023760201b60201c565b8160059080519060200190620001fd92919062000340565b5080600690805190602001906200021692919062000340565b506200022f635b5e139f60e01b6200023760201b60201c565b5050620003ef565b63ffffffff60e01b817bffffffffffffffffffffffffffffffffffffffffffffffffffffffff19161415620002d4576040517f08c379a000000000000000000000000000000000000000000000000000000000815260040180806020018281038252601c8152602001807f4552433136353a20696e76616c696420696e746572666163652069640000000081525060200191505060405180910390fd5b6001600080837bffffffffffffffffffffffffffffffffffffffffffffffffffffffff19167bffffffffffffffffffffffffffffffffffffffffffffffffffffffff1916815260200190815260200160002060006101000a81548160ff02191690831515021790555050565b828054600181600116156101000203166002900490600052602060002090601f016020900481019282601f106200038357805160ff1916838001178555620003b4565b82800160010185558215620003b4579182015b82811115620003b357825182559160200191906001019062000396565b5b509050620003c39190620003c7565b5090565b620003ec91905b80821115620003e8576000816000905550600101620003ce565b5090565b90565b6122bf80620003ff6000396000f3fe608060405234801561001057600080fd5b506004361061010b5760003560e01c80636352211e116100a257806395d89b411161007157806395d89b411461066b578063a22cb465146106ee578063b88d4fde1461073e578063c87b56dd14610843578063e985e9c5146108ea5761010b565b80636352211e1461049f5780636c0360eb1461050d57806370a08231146105905780638b49d47e146105e85761010b565b8063095ea7b3116100de578063095ea7b31461032b578063119df25f1461037957806323b872dd146103c357806342842e0e146104315761010b565b8063015388681461011057806301ffc9a7146101d557806306fdde031461023a578063081812fc146102bd575b600080fd5b6101d36004803603604081101561012657600080fd5b81019080803590602001909291908035906020019064010000000081111561014d57600080fd5b82018360208201111561015f57600080fd5b8035906020019184600183028401116401000000008311171561018157600080fd5b91908080601f016020809104026020016040519081016040528093929190818152602001838380828437600081840152601f19601f820116905080830192505050505050509192919290505050610966565b005b610220600480360360208110156101eb57600080fd5b8101908080357bffffffffffffffffffffffffffffffffffffffffffffffffffffffff191690602001909291905050506109f0565b604051808215151515815260200191505060405180910390f35b610242610a57565b6040518080602001828103825283818151815260200191508051906020019080838360005b83811015610282578082015181840152602081019050610267565b50505050905090810190601f1680156102af5780820380516001836020036101000a031916815260200191505b509250505060405180910390f35b6102e9600480360360208110156102d357600080fd5b8101908080359060200190929190505050610af9565b604051808273ffffffffffffffffffffffffffffffffffffffff1673ffffffffffffffffffffffffffffffffffffffff16815260200191505060405180910390f35b6103776004803603604081101561034157600080fd5b81019080803573ffffffffffffffffffffffffffffffffffffffff16906020019092919080359060200190929190505050610b94565b005b610381610d7b565b604051808273ffffffffffffffffffffffffffffffffffffffff1673ffffffffffffffffffffffffffffffffffffffff16815260200191505060405180910390f35b61042f600480360360608110156103d957600080fd5b81019080803573ffffffffffffffffffffffffffffffffffffffff169060200190929190803573ffffffffffffffffffffffffffffffffffffffff16906020019092919080359060200190929190505050610d83565b005b61049d6004803603606081101561044757600080fd5b81019080803573ffffffffffffffffffffffffffffffffffffffff169060200190929190803573ffffffffffffffffffffffffffffffffffffffff16906020019092919080359060200190929190505050610df9565b005b6104cb600480360360208110156104b557600080fd5b8101908080359060200190929190505050610e19565b604051808273ffffffffffffffffffffffffffffffffffffffff1673ffffffffffffffffffffffffffffffffffffffff16815260200191505060405180910390f35b610515610ee1565b6040518080602001828103825283818151815260200191508051906020019080838360005b8381101561055557808201518184015260208101905061053a565b50505050905090810190601f1680156105825780820380516001836020036101000a031916815260200191505b509250505060405180910390f35b6105d2600480360360208110156105a657600080fd5b81019080803573ffffffffffffffffffffffffffffffffffffffff169060200190929190505050610f83565b6040518082815260200191505060405180910390f35b6105f0611058565b6040518080602001828103825283818151815260200191508051906020019080838360005b83811015610630578082015181840152602081019050610615565b50505050905090810190601f16801561065d5780820380516001836020036101000a031916815260200191505b509250505060405180910390f35b6106736110a5565b6040518080602001828103825283818151815260200191508051906020019080838360005b838110156106b3578082015181840152602081019050610698565b50505050905090810190601f1680156106e05780820380516001836020036101000a031916815260200191505b509250505060405180910390f35b61073c6004803603604081101561070457600080fd5b81019080803573ffffffffffffffffffffffffffffffffffffffff169060200190929190803515159060200190929190505050611147565b005b6108416004803603608081101561075457600080fd5b81019080803573ffffffffffffffffffffffffffffffffffffffff169060200190929190803573ffffffffffffffffffffffffffffffffffffffff16906020019092919080359060200190929190803590602001906401000000008111156107bb57600080fd5b8201836020820111156107cd57600080fd5b803590602001918460018302840111640100000000831117156107ef57600080fd5b91908080601f016020809104026020016040519081016040528093929190818152602001838380828437600081840152601f19601f8201169050808301925050505050505091929192905050506112ff565b005b61086f6004803603602081101561085957600080fd5b8101908080359060200190929190505050611377565b6040518080602001828103825283818151815260200191508051906020019080838360005b838110156108af578082015181840152602081019050610894565b50505050905090810190601f1680156108dc5780820380516001836020036101000a031916815260200191505b509250505060405180910390f35b61094c6004803603604081101561090057600080fd5b81019080803573ffffffffffffffffffffffffffffffffffffffff169060200190929190803573ffffffffffffffffffffffffffffffffffffffff169060200190929190505050611579565b604051808215151515815260200191505060405180910390f35b61096f8261160d565b6109c4576040517f08c379a000000000000000000000000000000000000000000000000000000000815260040180806020018281038252602c8152602001806121b5602c913960400191505060405180910390fd5b806008600084815260200190815260200160002090805190602001906109eb929190611fd6565b505050565b6000806000837bffffffffffffffffffffffffffffffffffffffffffffffffffffffff19167bffffffffffffffffffffffffffffffffffffffffffffffffffffffff1916815260200190815260200160002060009054906101000a900460ff169050919050565b606060058054600181600116156101000203166002900480601f016020809104026020016040519081016040528092919081815260200182805460018160011615610100020316600290048015610aef5780601f10610ac457610100808354040283529160200191610aef565b820191906000526020600020905b815481529060010190602001808311610ad257829003601f168201915b5050505050905090565b6000610b048261160d565b610b59576040517f08c379a000000000000000000000000000000000000000000000000000000000815260040180806020018281038252602c815260200180612189602c913960400191505060405180910390fd5b6002600083815260200190815260200160002060009054906101000a900473ffffffffffffffffffffffffffffffffffffffff169050919050565b6000610b9f82610e19565b90508073ffffffffffffffffffffffffffffffffffffffff168373ffffffffffffffffffffffffffffffffffffffff161415610c26576040517f08c379a00000000000000000000000000000000000000000000000000000000081526004018080602001828103825260218152602001806122396021913960400191505060405180910390fd5b8073ffffffffffffffffffffffffffffffffffffffff16610c45610d7b565b73ffffffffffffffffffffffffffffffffffffffff161480610c745750610c7381610c6e610d7b565b611579565b5b610cc9576040517f08c379a00000000000000000000000000000000000000000000000000000000081526004018080602001828103825260388152602001806120fe6038913960400191505060405180910390fd5b826002600084815260200190815260200160002060006101000a81548173ffffffffffffffffffffffffffffffffffffffff021916908373ffffffffffffffffffffffffffffffffffffffff160217905550818373ffffffffffffffffffffffffffffffffffffffff168273ffffffffffffffffffffffffffffffffffffffff167f8c5be1e5ebec7d5bd14f71427d1e84f3dd0314c0f7b2291e5b200ac8c7c3b92560405160405180910390a4505050565b600033905090565b610d94610d8e610d7b565b8261167f565b610de9576040517f08c379a000000000000000000000000000000000000000000000000000000000815260040180806020018281038252603181526020018061225a6031913960400191505060405180910390fd5b610df4838383611773565b505050565b610e14838383604051806020016040528060008152506112ff565b505050565b6000806001600084815260200190815260200160002060009054906101000a900473ffffffffffffffffffffffffffffffffffffffff169050600073ffffffffffffffffffffffffffffffffffffffff168173ffffffffffffffffffffffffffffffffffffffff161415610ed8576040517f08c379a00000000000000000000000000000000000000000000000000000000081526004018080602001828103825260298152602001806121606029913960400191505060405180910390fd5b80915050919050565b606060078054600181600116156101000203166002900480601f016020809104026020016040519081016040528092919081815260200182805460018160011615610100020316600290048015610f795780601f10610f4e57610100808354040283529160200191610f79565b820191906000526020600020905b815481529060010190602001808311610f5c57829003601f168201915b5050505050905090565b60008073ffffffffffffffffffffffffffffffffffffffff168273ffffffffffffffffffffffffffffffffffffffff16141561100a576040517f08c379a000000000000000000000000000000000000000000000000000000000815260040180806020018281038252602a815260200180612136602a913960400191505060405180910390fd5b611051600360008473ffffffffffffffffffffffffffffffffffffffff1673ffffffffffffffffffffffffffffffffffffffff1681526020019081526020016000206119ce565b9050919050565b60606000368080601f016020809104026020016040519081016040528093929190818152602001838380828437600081840152601f19601f82011690508083019250505050505050905090565b606060068054600181600116156101000203166002900480601f01602080910402602001604051908101604052809291908181526020018280546001816001161561010002031660029004801561113d5780601f106111125761010080835404028352916020019161113d565b820191906000526020600020905b81548152906001019060200180831161112057829003601f168201915b5050505050905090565b61114f610d7b565b73ffffffffffffffffffffffffffffffffffffffff168273ffffffffffffffffffffffffffffffffffffffff1614156111f0576040517f08c379a00000000000000000000000000000000000000000000000000000000081526004018080602001828103825260198152602001807f4552433732313a20617070726f766520746f2063616c6c65720000000000000081525060200191505060405180910390fd5b80600460006111fd610d7b565b73ffffffffffffffffffffffffffffffffffffffff1673ffffffffffffffffffffffffffffffffffffffff16815260200190815260200160002060008473ffffffffffffffffffffffffffffffffffffffff1673ffffffffffffffffffffffffffffffffffffffff16815260200190815260200160002060006101000a81548160ff0219169083151502179055508173ffffffffffffffffffffffffffffffffffffffff166112aa610d7b565b73ffffffffffffffffffffffffffffffffffffffff167f17307eab39ab6107e8899845ad3d59bd9653f200f220920489ca2b5937696c3183604051808215151515815260200191505060405180910390a35050565b61131061130a610d7b565b8361167f565b611365576040517f08c379a000000000000000000000000000000000000000000000000000000000815260040180806020018281038252603181526020018061225a6031913960400191505060405180910390fd5b611371848484846119dc565b50505050565b60606113828261160d565b6113d7576040517f08c379a000000000000000000000000000000000000000000000000000000000815260040180806020018281038252602f81526020018061220a602f913960400191505060405180910390fd5b6060600860008481526020019081526020016000208054600181600116156101000203166002900480601f0160208091040260200160405190810160405280929190818152602001828054600181600116156101000203166002900480156114805780601f1061145557610100808354040283529160200191611480565b820191906000526020600020905b81548152906001019060200180831161146357829003601f168201915b505050505090506000815114156114a95760405180602001604052806000815250915050611574565b600781604051602001808380546001816001161561010002031660029004801561150a5780601f106114e857610100808354040283529182019161150a565b820191906000526020600020905b8154815290600101906020018083116114f6575b505082805190602001908083835b6020831061153b5780518252602082019150602081019050602083039250611518565b6001836020036101000a038019825116818451168082178552505050505050905001925050506040516020818303038152906040529150505b919050565b6000600460008473ffffffffffffffffffffffffffffffffffffffff1673ffffffffffffffffffffffffffffffffffffffff16815260200190815260200160002060008373ffffffffffffffffffffffffffffffffffffffff1673ffffffffffffffffffffffffffffffffffffffff16815260200190815260200160002060009054906101000a900460ff16905092915050565b6000806001600084815260200190815260200160002060009054906101000a900473ffffffffffffffffffffffffffffffffffffffff169050600073ffffffffffffffffffffffffffffffffffffffff168173ffffffffffffffffffffffffffffffffffffffff161415915050919050565b600061168a8261160d565b6116df576040517f08c379a000000000000000000000000000000000000000000000000000000000815260040180806020018281038252602c8152602001806120d2602c913960400191505060405180910390fd5b60006116ea83610e19565b90508073ffffffffffffffffffffffffffffffffffffffff168473ffffffffffffffffffffffffffffffffffffffff16148061175957508373ffffffffffffffffffffffffffffffffffffffff1661174184610af9565b73ffffffffffffffffffffffffffffffffffffffff16145b8061176a57506117698185611579565b5b91505092915050565b8273ffffffffffffffffffffffffffffffffffffffff1661179382610e19565b73ffffffffffffffffffffffffffffffffffffffff16146117ff576040517f08c379a00000000000000000000000000000000000000000000000000000000081526004018080602001828103825260298152602001806121e16029913960400191505060405180910390fd5b600073ffffffffffffffffffffffffffffffffffffffff168273ffffffffffffffffffffffffffffffffffffffff161415611885576040517f08c379a00000000000000000000000000000000000000000000000000000000081526004018080602001828103825260248152602001806120ae6024913960400191505060405180910390fd5b61188e81611a4e565b6118d5600360008573ffffffffffffffffffffffffffffffffffffffff1673ffffffffffffffffffffffffffffffffffffffff168152602001908152602001600020611b0c565b61191c600360008473ffffffffffffffffffffffffffffffffffffffff1673ffffffffffffffffffffffffffffffffffffffff168152602001908152602001600020611b2f565b816001600083815260200190815260200160002060006101000a81548173ffffffffffffffffffffffffffffffffffffffff021916908373ffffffffffffffffffffffffffffffffffffffff160217905550808273ffffffffffffffffffffffffffffffffffffffff168473ffffffffffffffffffffffffffffffffffffffff167fddf252ad1be2c89b69c2b068fc378daa952ba7f163c4a11628f55a4df523b3ef60405160405180910390a4505050565b600081600001549050919050565b6119e7848484611773565b6119f384848484611b45565b611a48576040517f08c379a000000000000000000000000000000000000000000000000000000000815260040180806020018281038252603281526020018061207c6032913960400191505060405180910390fd5b50505050565b600073ffffffffffffffffffffffffffffffffffffffff166002600083815260200190815260200160002060009054906101000a900473ffffffffffffffffffffffffffffffffffffffff1673ffffffffffffffffffffffffffffffffffffffff1614611b095760006002600083815260200190815260200160002060006101000a81548173ffffffffffffffffffffffffffffffffffffffff021916908373ffffffffffffffffffffffffffffffffffffffff1602179055505b50565b611b2460018260000154611e8190919063ffffffff16565b816000018190555050565b6001816000016000828254019250508190555050565b6000611b668473ffffffffffffffffffffffffffffffffffffffff16611ecb565b611b735760019050611e79565b600060608573ffffffffffffffffffffffffffffffffffffffff168673ffffffffffffffffffffffffffffffffffffffff1663150b7a02905060e01b611bb7610d7b565b898888604051602401808573ffffffffffffffffffffffffffffffffffffffff1673ffffffffffffffffffffffffffffffffffffffff1681526020018473ffffffffffffffffffffffffffffffffffffffff1673ffffffffffffffffffffffffffffffffffffffff16815260200183815260200180602001828103825283818151815260200191508051906020019080838360005b83811015611c67578082015181840152602081019050611c4c565b50505050905090810190601f168015611c945780820380516001836020036101000a031916815260200191505b5095505050505050604051602081830303815290604052907bffffffffffffffffffffffffffffffffffffffffffffffffffffffff19166020820180517bffffffffffffffffffffffffffffffffffffffffffffffffffffffff83818316178352505050506040518082805190602001908083835b60208310611d2c5780518252602082019150602081019050602083039250611d09565b6001836020036101000a0380198251168184511680821785525050505050509050019150506000604051808303816000865af19150503d8060008114611d8e576040519150601f19603f3d011682016040523d82523d6000602084013e611d93565b606091505b509150915081611e0157600081511115611db05780518082602001fd5b6040517f08c379a000000000000000000000000000000000000000000000000000000000815260040180806020018281038252603281526020018061207c6032913960400191505060405180910390fd5b6000818060200190516020811015611e1857600080fd5b8101908080519060200190929190505050905063150b7a0260e01b7bffffffffffffffffffffffffffffffffffffffffffffffffffffffff1916817bffffffffffffffffffffffffffffffffffffffffffffffffffffffff19161493505050505b949350505050565b6000611ec383836040518060400160405280601e81526020017f536166654d6174683a207375627472616374696f6e206f766572666c6f770000815250611f16565b905092915050565b60008060007fc5d2460186f7233c927e7db2dcc703c0e500b653ca82273b7bfad8045d85a47060001b9050833f9150808214158015611f0d57506000801b8214155b92505050919050565b6000838311158290611fc3576040517f08c379a00000000000000000000000000000000000000000000000000000000081526004018080602001828103825283818151815260200191508051906020019080838360005b83811015611f88578082015181840152602081019050611f6d565b50505050905090810190601f168015611fb55780820380516001836020036101000a031916815260200191505b509250505060405180910390fd5b5060008385039050809150509392505050565b828054600181600116156101000203166002900490600052602060002090601f016020900481019282601f1061201757805160ff1916838001178555612045565b82800160010185558215612045579182015b82811115612044578251825591602001919060010190612029565b5b5090506120529190612056565b5090565b61207891905b8082111561207457600081600090555060010161205c565b5090565b9056fe4552433732313a207472616e7366657220746f206e6f6e20455243373231526563656976657220696d706c656d656e7465724552433732313a207472616e7366657220746f20746865207a65726f20616464726573734552433732313a206f70657261746f7220717565727920666f72206e6f6e6578697374656e7420746f6b656e4552433732313a20617070726f76652063616c6c6572206973206e6f74206f776e6572206e6f7220617070726f76656420666f7220616c6c4552433732313a2062616c616e636520717565727920666f7220746865207a65726f20616464726573734552433732313a206f776e657220717565727920666f72206e6f6e6578697374656e7420746f6b656e4552433732313a20617070726f76656420717565727920666f72206e6f6e6578697374656e7420746f6b656e4552433732314d657461646174613a2055524920736574206f66206e6f6e6578697374656e7420746f6b656e4552433732313a207472616e73666572206f6620746f6b656e2074686174206973206e6f74206f776e4552433732314d657461646174613a2055524920717565727920666f72206e6f6e6578697374656e7420746f6b656e4552433732313a20617070726f76616c20746f2063757272656e74206f776e65724552433732313a207472616e736665722063616c6c6572206973206e6f74206f776e6572206e6f7220617070726f766564a265627a7a72315820b8716a3821349e8225f2e5a5ea1ab750d2938683b9bf48b58e00bb408e867cb364736f6c63430005110032",
  "source": "pragma solidity ^0.5.0;\n\n//import \"../../GSN/Context.sol\";\n//import \"./ERC721.sol\";\nimport \"@openzeppelin/contracts/utils/Context.sol\";\nimport \"./IERC721Metadata.sol\";\nimport \"../../introspection/ERC165.sol\";\n//import \"@openzeppelin/contracts/token/ERC721/ERC721Metadata.sol\"\nimport \"@openzeppelin/contracts/token/ERC721/ERC721.sol\";\n\ncontract ERC721Metadata is Context, ERC165, ERC721, IERC721Metadata {\n    // Token name\n    string private _name;\n\n    // Token symbol\n    string private _symbol;\n\n    // Base URI\n    string private _baseURI;\n\n    // Optional mapping for token URIs\n    mapping(uint256 => string) private _tokenURIs;\n\n    /*\n     *     bytes4(keccak256('name()')) == 0x06fdde03\n     *     bytes4(keccak256('symbol()')) == 0x95d89b41\n     *     bytes4(keccak256('tokenURI(uint256)')) == 0xc87b56dd\n     *\n     *     => 0x06fdde03 ^ 0x95d89b41 ^ 0xc87b56dd == 0x5b5e139f\n     */\n    bytes4 private constant _INTERFACE_ID_ERC721_METADATA = 0x5b5e139f;\n\n    /**\n     * @dev Constructor function\n     */\n    constructor (string memory name, string memory symbol) public {\n        _name = name;\n        _symbol = symbol;\n\n        // register the supported interfaces to conform to ERC721 via ERC165\n        _registerInterface(_INTERFACE_ID_ERC721_METADATA);\n    }\n\n    /**\n     * @dev Gets the token name.\n     * @return string representing the token name\n     */\n    function name() external view returns (string memory) {\n        return _name;\n    }\n\n    /**\n     * @dev Gets the token symbol.\n     * @return string representing the token symbol\n     */\n    function symbol() external view returns (string memory) {\n        return _symbol;\n    }\n\n    /**\n     * @dev Returns the URI for a given token ID. May return an empty string.\n     *\n     * If the token's URI is non-empty and a base URI was set (via\n     * {_setBaseURI}), it will be added to the token ID's URI as a prefix.\n     *\n     * Reverts if the token ID does not exist.\n     */\n    function tokenURI(uint256 tokenId) public view returns (string memory) {\n        require(_exists(tokenId), \"ERC721Metadata: URI query for nonexistent token\");\n\n        string memory _tokenURI = _tokenURIs[tokenId];\n\n        // Even if there is a base URI, it is only appended to non-empty token-specific URIs\n        if (bytes(_tokenURI).length == 0) {\n            return \"\";\n        } else {\n            // abi.encodePacked is being used to concatenate strings\n            return string(abi.encodePacked(_baseURI, _tokenURI));\n        }\n    }\n\n    /**\n     * @dev Internal function to set the token URI for a given token.\n     *\n     * Reverts if the token ID does not exist.\n     *\n     * TIP: if all token IDs share a prefix (e.g. if your URIs look like\n     * `http://api.myproject.com/token/<id>`), use {_setBaseURI} to store\n     * it and save gas.\n     */ \n      // reset back to memory\n    function _setTokenURI(uint256 tokenId, string memory _tokenURI) public {\n        require(_exists(tokenId), \"ERC721Metadata: URI set of nonexistent token\");\n        _tokenURIs[tokenId] = _tokenURI;\n    }\n\n    /**\n     * @dev Internal function to set the base URI for all token IDs. It is\n     * automatically added as a prefix to the value returned in {tokenURI}.\n     *\n     * _Available since v2.5.0._\n     */\n    function _setBaseURI(string memory baseURI) internal {\n        _baseURI = baseURI;\n    }\n\n    /**\n    * @dev Returns the base URI set via {_setBaseURI}. This will be\n    * automatically added as a preffix in {tokenURI} to each token's URI, when\n    * they are non-empty.\n    *\n    * _Available since v2.5.0._\n    */\n    function baseURI() external view returns (string memory) {\n        return _baseURI;\n    }\n\n    /**\n     * @dev Internal function to burn a specific token.\n     * Reverts if the token does not exist.\n     * Deprecated, use _burn(uint256) instead.\n     * @param owner owner of the token to burn\n     * @param tokenId uint256 ID of the token being burned by the msg.sender\n     */\n    function _burn(address owner, uint256 tokenId) internal {\n        super._burn(owner, tokenId);\n\n        // Clear metadata (if any)\n        if (bytes(_tokenURIs[tokenId]).length != 0) {\n            delete _tokenURIs[tokenId];\n        }\n    }\n}\n",
  "sourcePath": "@openzeppelin/contracts/token/ERC721/ERC721Metadata.sol",
  "compiler": {
    "name": "solc",
    "version": "0.5.17+commit.d19bba13.Emscripten.clang"
  },
  "schemaVersion": "3.2.0",
  "updatedAt": "2021-04-06T01:52:18.960Z",
  "devdoc": {
    "methods": {
      "_setTokenURI(uint256,string)": {
        "details": "Internal function to set the token URI for a given token.     * Reverts if the token ID does not exist.     * TIP: if all token IDs share a prefix (e.g. if your URIs look like `http://api.myproject.com/token/<id>`), use {_setBaseURI} to store it and save gas."
      },
      "approve(address,uint256)": {
        "details": "Approves another address to transfer the given token ID The zero address indicates there is no approved address. There can only be one approved address per token at a given time. Can only be called by the token owner or an approved operator.",
        "params": {
          "to": "address to be approved for the given token ID",
          "tokenId": "uint256 ID of the token to be approved"
        }
      },
      "balanceOf(address)": {
        "details": "Gets the balance of the specified address.",
        "params": {
          "owner": "address to query the balance of"
        },
        "return": "uint256 representing the amount owned by the passed address"
      },
      "baseURI()": {
        "details": "Returns the base URI set via {_setBaseURI}. This will be automatically added as a preffix in {tokenURI} to each token's URI, when they are non-empty.    * _Available since v2.5.0._"
      },
      "constructor": {
        "details": "Constructor function"
      },
      "getApproved(uint256)": {
        "details": "Gets the approved address for a token ID, or zero if no address set Reverts if the token ID does not exist.",
        "params": {
          "tokenId": "uint256 ID of the token to query the approval of"
        },
        "return": "address currently approved for the given token ID"
      },
      "isApprovedForAll(address,address)": {
        "details": "Tells whether an operator is approved by a given owner.",
        "params": {
          "operator": "operator address which you want to query the approval of",
          "owner": "owner address which you want to query the approval of"
        },
        "return": "bool whether the given operator is approved by the given owner"
      },
      "name()": {
        "details": "Gets the token name.",
        "return": "string representing the token name"
      },
      "ownerOf(uint256)": {
        "details": "Gets the owner of the specified token ID.",
        "params": {
          "tokenId": "uint256 ID of the token to query the owner of"
        },
        "return": "address currently marked as the owner of the given token ID"
      },
      "safeTransferFrom(address,address,uint256)": {
        "details": "Safely transfers the ownership of a given token ID to another address If the target address is a contract, it must implement {IERC721Receiver-onERC721Received}, which is called upon a safe transfer, and return the magic value `bytes4(keccak256(\"onERC721Received(address,address,uint256,bytes)\"))`; otherwise, the transfer is reverted. Requires the msg.sender to be the owner, approved, or operator",
        "params": {
          "from": "current owner of the token",
          "to": "address to receive the ownership of the given token ID",
          "tokenId": "uint256 ID of the token to be transferred"
        }
      },
      "safeTransferFrom(address,address,uint256,bytes)": {
        "details": "Safely transfers the ownership of a given token ID to another address If the target address is a contract, it must implement {IERC721Receiver-onERC721Received}, which is called upon a safe transfer, and return the magic value `bytes4(keccak256(\"onERC721Received(address,address,uint256,bytes)\"))`; otherwise, the transfer is reverted. Requires the _msgSender() to be the owner, approved, or operator",
        "params": {
          "_data": "bytes data to send along with a safe transfer check",
          "from": "current owner of the token",
          "to": "address to receive the ownership of the given token ID",
          "tokenId": "uint256 ID of the token to be transferred"
        }
      },
      "setApprovalForAll(address,bool)": {
        "details": "Sets or unsets the approval of a given operator An operator is allowed to transfer all tokens of the sender on their behalf.",
        "params": {
          "approved": "representing the status of the approval to be set",
          "to": "operator address to set the approval"
        }
      },
      "supportsInterface(bytes4)": {
        "details": "See {IERC165-supportsInterface}.     * Time complexity O(1), guaranteed to always use less than 30 000 gas."
      },
      "symbol()": {
        "details": "Gets the token symbol.",
        "return": "string representing the token symbol"
      },
      "tokenURI(uint256)": {
        "details": "Returns the URI for a given token ID. May return an empty string.     * If the token's URI is non-empty and a base URI was set (via {_setBaseURI}), it will be added to the token ID's URI as a prefix.     * Reverts if the token ID does not exist."
      },
      "transferFrom(address,address,uint256)": {
        "details": "Transfers the ownership of a given token ID to another address. Usage of this method is discouraged, use {safeTransferFrom} whenever possible. Requires the msg.sender to be the owner, approved, or operator.",
        "params": {
          "from": "current owner of the token",
          "to": "address to receive the ownership of the given token ID",
          "tokenId": "uint256 ID of the token to be transferred"
        }
      }
    }
  },
  "userdoc": {
    "methods": {}
  }
}